:020000040800F2
:100000000028002009140008091100080F11000839
:10001000151100081B110008211100080000000044
:100020000000000000000000000000002711000890
:1000300033110008000000003F1100084B110008B8
:1000400051140008511400085114000851140008FC
:1000500051140008511400085114000851140008EC
:1000600051140008511400085114000851140008DC
:1000700051140008511400085114000851140008CC
:1000800051140008511400085114000851140008BC
:1000900051140008511400085114000851140008AC
:1000A000511400085114000851140008511400089C
:1000B00059110008511400080000000051140008F4
:1000C0005114000800000000000000005114000856
:1000D0000000000051140008511400080000000046
:1000E00051140008511400085114000800000000C9
:1000F0000000000000000000000000000000000000
:0C01000000000000000000005FF808F1A3
:10010C0010B5054C237833B9044B13B10448AFF345
:10011C0000800123237010BD70000020000000003F
:10012C00A82A000808B5034B1BB103490348AFF3D9
:10013C00008008BD0000000074000020A82A000800
:10014C0080B582B000AF00237B6031E01C4A7B6835
:10015C00134419781B4A7B6813440A461A701A4ACE
:10016C007B6852F8232019497B6831F81330194603
:10017C00104601F053FC03461946114A7B681344A0
:10018C000A461A700E4A7B6813441A780D497B682C
:10019C000B441B789A4208D1094A7B68134419789E
:1001AC000B4A7B6813440A461A707B6801337B60E8
:1001BC007B68022BCADD00BF00BF0837BD4680BD7F
:1001CC0008000020040000200C0000201800002073
:1001DC000000002080B483B000AF78607B68032BF4
:1001EC0001DD002308E0074A7B6813441B78002BD1
:1001FC000CBF01230023DBB218460C37BD4680BC74
:10020C00704700BF0000002080B500AF964B1B6804
:10021C00042B00F2598201A252F823F03D0200088F
:10022C007102000855030008AD040008CD05000854
:10023C008E4B1B68012B40F049828B4B01221A60BC
:10024C00FA2000F007FE4FF47A7000F01FFE00F069
:10025C002DFD874B00221A70864B00221A7000F07D
:10026C0085FF33E2814B1B68012B21D1804B1B781E
:10027C00184600F035FC7F4B1B78184600F076FBD7
:10028C007C4B1B780133DAB27A4B1A70794B1B78A2
:10029C00042B02D1774B00221A70754B1B78764ACF
:1002AC0012681146184601F033F8FA2000F0D2FD1E
:1002BC00724B1B68012B22D1714B1B68013B704A9E
:1002CC0013606D4B1B68013B6B4A13606A4B1B68D8
:1002DC00002B04DA6B4B1B68013B6A4A1360684BBA
:1002EC001B68002B07D100F0E1FC614B1B7801333C
:1002FC00DAB25F4B1A704FF47A7000F0C7FD624BA4
:10030C001B68012B15D1584B02221A60FA2000F001
:10031C00A1FD322000F0BAFD554B00221A7000F0FE
:10032C00C5FC544B00221A7000F020FF564B0022E3
:10033C001A600020FFF74EFF0346002B00F0C88127
:10034C00322000F0F9FDC3E1484B1B68012B20D192
:10035C00454B1A684D4B1B7819464D4B1B680B448B
:10036C001946104600F0C0FC424B1B78184600F0B2
:10037C00FDFA404B1B780133DAB23E4B1A703D4B01
:10038C001B78042B02D13B4B00221A70FA2000F090
:10039C0061FD3A4B1B68012B08D1334B1B68184687
:1003AC0000F0F4FF4FF4FA7000F070FD394B1B684D
:1003BC00012B0CD1354B1B78092B05D8334B1B78F3
:1003CC000133DAB2314B1A70324B00221A60324BC5
:1003DC001B68012B13D12D4B1B781A462C4B1B6819
:1003EC0013442B4A1360294B00221A702A4B00220B
:1003FC001A6000224FF48041284801F026FB224B62
:10040C001B68012B13D1184B03221A60FA2000F041
:10041C0021FD322000F03AFD164B00221A701B4BC6
:10042C0000221A7000F0A2FE174B00221A60012065
:10043C00FFF7D0FE0346002B02D0322000F044FD23
:10044C000220FFF7C7FE0346002B02D0322000F03B
:10045C0057FD0020FFF7BEFE0346002B00F03A814B
:10046C00322000F069FD35E190000020A000002052
:10047C008E0000208C00002008010020A400002029
:10048C0004010020FC000020B00000208D000020A2
:10049C0020000020A8000020AC0000200008014033
:1004AC00904B1B68012B20D18F4B1A688F4B1B78FC
:1004BC0019468F4B1B680B441946104600F014FC70
:1004CC008C4B1B78184600F051FA8A4B1B78013381
:1004DC00DAB2884B1A70874B1B78042B02D1854BF0
:1004EC0000221A70FA2000F0B5FC834B1B68012B1C
:1004FC0008D17D4B1B68184600F048FF4FF4FA708A
:10050C0000F0C4FC7D4B1B68012B0CD1774B1B7886
:10051C00092B05D8754B1B780133DAB2734B1A7063
:10052C00764B00221A60764B1B68012B13D16F4B54
:10053C001B781A466E4B1B6813446D4A13606B4B49
:10054C0000221A706E4B00221A6000224FF4804178
:10055C006C4801F07AFA6C4B1B68012B13D1624B7F
:10056C0004221A60FA2000F075FC322000F08EFC98
:10057C00604B00221A705D4B00221A7000F0F6FDE1
:10058C00614B00221A600120FFF724FE0346002B6A
:10059C0002D0322000F098FC0220FFF71BFE03462D
:1005AC00002B02D0322000F0ABFC0020FFF712FE33
:1005BC000346002B00F09080322000F0BDFC8BE055
:1005CC00484B1B68012B20D1474B1A68474B1B78B3
:1005DC0019464E4B1B680B441946104600F084FB21
:1005EC00444B1B78184600F0C1F9424B1B78013381
:1005FC00DAB2404B1A703F4B1B78042B02D13D4BA7
:10060C0000221A70FA2000F025FC3B4B1B68012BD2
:10061C0008D1354B1B68184600F0B8FE4FF4FA7041
:10062C0000F034FC354B1B68012B0CD12F4B1B7885
:10063C00092B05D82D4B1B780133DAB22B4B1A70D2
:10064C002E4B00221A602E4B1B68012B13D1274B0B
:10065C001B781A462D4B1B6813442C4A1360234BF2
:10066C0000221A70264B00221A6000224FF480419F
:10067C00244801F0EAF9244B1B68012B08D11A4BD2
:10068C0000221A60322000F0E5FB1F4B00221A609A
:10069C000120FFF79FFD0346002B02D0322000F013
:1006AC0013FC0220FFF796FD0346002B02D03220EC
:1006BC0000F026FC0020FFF78DFD0346002B0DD02B
:1006CC00322000F039FC09E000BF08E000BF06E072
:1006DC0000BF04E000BF02E000BF00E000BF00BFAD
:1006EC0080BD00BFA0000020900000208D000020E5
:1006FC00280000208C000020A4000020A80000206E
:10070C00AC00002000080140B000002024000020B4
:10071C0080B500AF00F098FE00F012F800F098F8E9
:10072C0000F04AF8054801F0F9FD00F01FFD3220F9
:10073C0000F090FBFFF768FDFCE700BFB400002061
:10074C0080B590B000AF07F118032822002118469D
:10075C0002F09CF93B1D00221A605A609A60DA6024
:10076C001A610223BB610123BB621023FB620023CD
:10077C007B6307F11803184601F098F90346002B28
:10078C0001D000F0D3F80F237B600023BB60002363
:10079C00FB6000233B6100237B613B1D002118465D
:1007AC0001F004FC0346002B01D000F0BFF800BFA1
:1007BC004037BD4680BD000080B586B000AF07F164
:1007CC00080300221A605A609A60DA603B460022E5
:1007DC001A605A601D4B4FF080421A601B4B41F659
:1007EC003F725A60194B00229A60184B0922DA604A
:1007FC00164B00221A61154B00229A61134801F026
:10080C003DFD0346002B01D000F090F84FF48053CF
:10081C00BB6007F1080319460C4801F0D3FE0346F0
:10082C00002B01D000F082F800233B6000237B609A
:10083C003B461946054802F09BF80346002B01D0B5
:10084C0000F074F800BF1837BD4680BDB40000201E
:10085C0080B586B000AF07F1080300221A605A6019
:10086C009A60DA60284B9B69274A43F00403936132
:10087C00254B9B6903F004037B607B68224B9B69CF
:10088C00214A43F0080393611F4B9B6903F0080353
:10089C003B603B68002245F6F8711C4801F0D5F826
:1008AC0000227F211A4801F0D0F845F6F873BB609E
:1008BC000123FB6000233B6102237B6107F10803EA
:1008CC001946124800F030FF7F23BB600123FB6008
:1008DC0000233B6102237B6107F1080319460C4896
:1008EC0000F022FF4FF4A843BB600023FB60012300
:1008FC003B6107F108031946054800F015FF00BFDE
:10090C001837BD4680BD00BF0010024000080140F2
:10091C00000C014080B582B000AF786000F028FB7D
:10092C00FFF70EFC00BF0837BD4680BD80B400AF9A
:10093C0072B600BFFEE7000080B500AF01220821AF
:10094C00094801F082F801221021074801F07DF8D6
:10095C0001222021044801F078F8012240210248AC
:10096C0001F073F800BF80BD0008014080B582B073
:10097C0000AF0346FB71FB79032B4BD801A252F855
:10098C0023F000BFA1090008C1090008E109000813
:10099C00010A0008FFF7D0FFFB79214AD35C1A4605
:1009AC00204B9B5C184600F071F8FB79184600F060
:1009BC003BF830E0FFF7C0FFFB79194AD35C1A46CD
:1009CC00184B9B5C184600F061F8FB79184600F058
:1009DC002BF820E0FFF7B0FFFB79114AD35C1A46E5
:1009EC00104B9B5C184600F051F8FB79184600F050
:1009FC001BF810E0FFF7A0FFFB79094AD35C1A46FD
:100A0C00084B9B5C184600F041F8FB79184600F047
:100A1C000BF800E000BF00BF0837BD4680BD00BF2B
:100A2C00000100202C00002080B582B000AF0346EE
:100A3C00FB71FB79032B23D801A252F823F000BFE2
:100A4C005D0A0008690A0008750A0008810A000896
:100A5C00002208210C4800F0F8FF11E000221021C0
:100A6C00094800F0F2FF0BE000222021064800F0BC
:100A7C00ECFF05E000224021034800F0E6FF00BF38
:100A8C0000BF0837BD4680BD0008014080B584B06A
:100A9C0000AF0346FB710023FB7315E0FB7B0E4A92
:100AAC0052F82300FB7B0D4A32F81310FA79FB7BCA
:100ABC0042FA03F3DBB203F00103DBB21A4600F097
:100ACC00C4FFFB7B0133FB73FB7B062BE6D900BF1A
:100ADC0000BF1037BD4680BD3800002054000020F8
:100AEC0080B483B000AF0346FB71684B1B68002BCE
:100AFC0014D1674B1B68002B10D1664B1B68002B65
:100B0C000CD1654B00221A70634B00225A70624B59
:100B1C0000229A70604B0022DA70B2E0FB7903F08D
:100B2C000103DBB2002B56D15C4B1B685C4A82FB89
:100B3C0003129210DB17D31ADAB2574B1A70574BB9
:100B4C001A68574B83FB02139910D317C91A0B461B
:100B5C009B000B445B00D11ACAB24F4B5A70514BDD
:100B6C001B68002B1BDD4F4B1B684D4A82FB03128D
:100B7C009210DB17D31ADAB2474B9A70494B1A68AA
:100B8C00474B83FB02139910D317C91A0B469B00D2
:100B9C000B445B00D11ACAB23F4BDA7071E0424B86
:100BAC001B683F4A82FB03129210DB17D31ADAB28E
:100BBC00394B9A703C4B1A68394B83FB02139910D2
:100BCC00D317C91A0B469B000B445B00D11ACAB24F
:100BDC00314BDA7055E0314B1B68314A82FB031202
:100BEC009210DB17D31ADAB22B4B9A702B4B1A6874
:100BFC002B4B83FB02139910D317C91A0B469B007E
:100C0C000B445B00D11ACAB2234BDA70254B1B681C
:100C1C00002B1BDD234B1B68214A82FB0312921015
:100C2C00DB17D31ADAB21C4B1A701E4B1A681C4B0A
:100C3C0083FB02139910D317C91A0B469B000B4464
:100C4C005B00D11ACAB2144B5A701AE0164B1B68CF
:100C5C00134A82FB03129210DB17D31ADAB20E4B33
:100C6C001A70114B1A680E4B83FB02139910D31791
:100C7C00C91A0B469B000B445B00D11ACAB2064B37
:100C8C005A700C37BD4680BC704700BF2000002056
:100C9C002400002028000020000100200401002076
:100CAC006766666608010020FC00002080B400AF77
:100CBC00074B1B68074A1360074B1B68074A1360F6
:100CCC00074B1B68074A136000BFBD4680BC7047CA
:100CDC002000002004010020240000200801002036
:100CEC0028000020FC00002080B483B000AF7860A6
:100CFC0039607B68042B70D07B68042B00F3A080D8
:100D0C007B68022B03D07B68032B33D098E03B68C5
:100D1C004E4A82FB03129210DB17D31ADAB24C4BF9
:100D2C001A703A68494B83FB02139910D317C91AEE
:100D3C000B469B000B445B00D11ACAB2444B5A7051
:100D4C007B68424A82FB03129210DB17D31ADAB289
:100D5C003F4B9A707A683D4B83FB02139910D31763
:100D6C00C91A0B469B000B445B00D11ACAB2384B14
:100D7C00DA7066E03B68354A82FB03129210DB178F
:100D8C00D31ADAB2324B1A703A68304B83FB021327
:100D9C009910D317C91A0B469B000B445B00D11A50
:100DAC00CAB22B4B5A707B68284A82FB03129210F2
:100DBC00DB17D31ADAB2264B9A707A68234B83FB73
:100DCC0002139910D317C91A0B469B000B445B00F6
:100DDC00D11ACAB21E4BDA7033E03B681B4A82FB55
:100DEC0003129210DB17D31ADAB2194B1A703A6845
:100DFC00164B83FB02139910D317C91A0B469B0091
:100E0C000B445B00D11ACAB2114B5A707B680F4A63
:100E1C0082FB03129210DB17D31ADAB20C4B9A70C6
:100E2C007A680A4B83FB02139910D317C91A0B4625
:100E3C009B000B445B00D11ACAB2054BDA7000E080
:100E4C0000BF00BF0C37BD4680BC70476766666646
:100E5C000001002080B483B000AF0346FB80FB8808
:100E6C00074AA2FB0323DB089AB2064B1A80064BF7
:100E7C0000221A6000BF0C37BD4680BC704700BF13
:100E8C00CDCCCCCC94000020A000002080B483B04A
:100E9C0000AF0346FB80FB88084AA2FB0323DB0858
:100EAC009BB202339AB2064B1A80064B00221A6090
:100EBC0000BF0C37BD4680BC704700BFCDCCCCCC3E
:100ECC0096000020A400002080B483B000AF03463D
:100EDC00FB80FB88074AA2FB0323DB089AB2064B74
:100EEC001A80064B00221A6000BF0C37BD4680BC2E
:100EFC00704700BFCDCCCCCC98000020A8000020BF
:100F0C0080B483B000AF0346FB80FB88074AA2FB8A
:100F1C000323DB089AB2064B1A80064B00221A6098
:100F2C0000BF0C37BD4680BC704700BFCDCCCCCCCD
:100F3C009A000020AC00002080B483B000AF0346C0
:100F4C00FB80FB88074AA2FB0323DB089AB2064B03
:100F5C001A80064B00221A6000BF0C37BD4680BCBD
:100F6C00704700BFCDCCCCCC9C000020B000002042
:100F7C0080B400AF2C4B1B88002B0CD02A4B1B8849
:100F8C00013B9AB2284B1A80274B1B88002B02D1AD
:100F9C00264B01221A60264B1B88002B0CD0244BAD
:100FAC001B88013B9AB2224B1A80214B1B88002BC9
:100FBC0002D1204B01221A601F4B1B88002B0CD036
:100FCC001D4B1B88013B9AB21B4B1A801A4B1B887A
:100FDC00002B02D1194B01221A60194B1B88002BD4
:100FEC000CD0174B1B88013B9AB2154B1A80144B33
:100FFC001B88002B02D1134B01221A60124B1B8849
:10100C00002B0CD0104B1B88013B9AB20E4B1A8054
:10101C000D4B1B88002B02D10C4B01221A6000BF18
:10102C00BD4680BC704700BF94000020A00000208B
:10103C0096000020A400002098000020A8000020AA
:10104C009A000020AC0000209C000020B000002082
:10105C0080B485B000AF154B9B69144A43F0010373
:10106C009361124B9B6903F00103BB60BB680F4B90
:10107C00DB690E4A43F08053D3610C4BDB6903F000
:10108C0080537B607B680A4B5B68FB60FB6823F0DA
:10109C00E063FB60FB6843F08063FB60044AFB6821
:1010AC00536000BF1437BD4680BC7047001002402F
:1010BC000000014080B584B000AF78607B681B688D
:1010CC00B3F1804F13D10C4BDB690B4A43F0010396
:1010DC00D361094BDB6903F00103FB60FB68002261
:1010EC0000211C2000F0E9FA1C2000F002FB00BFDC
:1010FC001037BD4680BD00BF0010024080B400AF69
:10110C00FEE780B400AFFEE780B400AFFEE780B42A
:10111C0000AFFEE780B400AFFEE780B400AF00BFC5
:10112C00BD4680BC704780B400AF00BFBD4680BCDC
:10113C00704780B400AF00BFBD4680BC704780B51F
:10114C0000AF00F0C7F900BF80BD000080B500AF54
:10115C00024801F02FF900BF80BD00BFB400002091
:10116C0080B400AF00BFBD4680BC704780B500AFF7
:10117C0001228021144800F068FC01224FF4807198
:10118C00114800F062FC01224FF400710E4800F08F
:10119C005CFC01224FF480610B4800F056FC0122EC
:1011AC004FF40061084800F050FC01224FF48051CC
:1011BC00054800F04AFC01224FF48041024800F03F
:1011CC0044FC00BF80BD00BF0008014080B582B068
:1011DC0000AF78607B68012B14D07B68042B24D182
:1011EC0000228021134800F030FC01224FF4807162
:1011FC00104800F02AFC01224FF400710D4800F059
:10120C0024FC13E000224FF480610A4800F01DFC1E
:10121C0001224FF40061074800F017FC01224FF443
:10122C008051044800F011FC00E000BF00BF0837FB
:10123C00BD4680BD0008014080B582B000AF78602B
:10124C007B68012B14D07B68042B24D101228021D4
:10125C00134800F0FAFB00224FF48071104800F0A4
:10126C00F4FB01224FF400710D4800F0EEFB13E08B
:10127C0001224FF480610A4800F0E7FB00224FF492
:10128C000061074800F0E1FB01224FF48051044853
:10129C0000F0DBFB00E000BF00BF0837BD4680BD9F
:1012AC000008014080B582B000AF78607B68012BEC
:1012BC0014D07B68042B24D101228021134800F028
:1012CC00C4FB01224FF48071104800F0BEFB0022D9
:1012DC004FF400710D4800F0B8FB13E001224FF4FD
:1012EC0080610A4800F0B1FB01224FF4006107480D
:1012FC0000F0ABFB00224FF48051044800F0A5FB3A
:10130C0000E000BF00BF0837BD4680BD00080140AB
:10131C0080B582B000AF03463960FB71184B1B6877
:10132C00002B07D1174B1B68002B03D1164B1B68E6
:10133C00002B21D0FB7903F00103DBB2002B0DD184
:10134C000420FFF743FF3B68002B03DD0120FFF770
:10135C00A9FF12E00120FFF76FFF0EE00120FFF75D
:10136C0035FF3B68002B03DD0420FFF79BFF04E0F7
:10137C000420FFF761FF00E000BF0837BD4680BDC9
:10138C0020000020240000202800002080B582B01E
:10139C0000AF78607B68042B1ED07B68042B26DCA6
:1013AC007B68022B03D07B68032B0AD01FE08021C3
:1013BC00114800F062FB4FF480610F4800F05DFBB8
:1013CC0016E04FF480710C4800F057FB4FF40061AD
:1013DC00094800F052FB0BE04FF40071064800F096
:1013EC004CFB4FF48051044800F047FB00E000BF79
:1013FC0000BF0837BD4680BD000801400C480D49B0
:10140C000D4A002302E0D458C4500433C4188C4253
:10141C00F9D30A4A0A4C002301E013600432A242B9
:10142C00FBD3FFF79DFE01F00DFBFFF771F9704741
:10143C000000002070000020E82A00087000002046
:10144C0010010020FEE7000080B500AF084B1B68C0
:10145C00074A43F010031360032000F023F90F2018
:10146C0000F008F8FFF7F4FD0023184680BD00BF1C
:10147C000020024080B582B000AF7860124B1A6831
:10148C00124B1B7819464FF47A73B3FBF1F3B2FB92
:10149C00F3F3184600F03BF90346002B01D001236F
:1014AC000EE07B680F2B0AD8002279684FF0FF30D2
:1014BC0000F003F9064A7B681360002300E0012367
:1014CC0018460837BD4680BD640000206C00002023
:1014DC006800002080B400AF054B1B781A46054B02
:1014EC001B681344034A136000BFBD4680BC7047A1
:1014FC006C0000200C01002080B400AF024B1B6874
:10150C001846BD4680BC70470C01002080B485B0E5
:10151C0000AF78607B6803F00703FB600C4BDB6863
:10152C00BB60BA684FF6FF031340BB60FB681A023E
:10153C00BB68134343F0BF6343F40033BB60044AFE
:10154C00BB68D36000BF1437BD4680BC704700BF7A
:10155C0000ED00E080B400AF044BDB681B0A03F025
:10156C0007031846BD4680BC704700BF00ED00E085
:10157C0080B483B000AF0346FB7197F90730002BA2
:10158C000BDBFB7903F01F02064997F907305B0967
:10159C00012000FA02F241F8232000BF0C37BD46AF
:1015AC0080BC704700E100E080B483B000AF03461C
:1015BC003960FB7197F90730002B0ADB3B68DAB214
:1015CC000C4997F907301201D2B20B4483F800236F
:1015DC000AE03B68DAB20849FB7903F00F03043BDD
:1015EC001201D2B20B441A7600BF0C37BD4680BC38
:1015FC00704700BF00E100E000ED00E080B489B06E
:10160C0000AFF860B9607A60FB6803F00703FB6118
:10161C00FB69C3F10703042B28BF0423BB61FB69DF
:10162C000433062B02D9FB69033B00E000237B61EA
:10163C004FF0FF32BB6902FA03F3DA43BB681A407E
:10164C007B699A404FF0FF317B6901FA03F3D94370
:10165C007B680B40134318462437BD4680BC70474B
:10166C0080B582B000AF78607B68013BB3F1807FBE
:10167C0001D301230FE00A4A7B68013B53600F2121
:10168C004FF0FF30FFF790FF054B00229A60044BA0
:10169C0007221A60002318460837BD4680BD00BFDC
:1016AC0010E000E080B582B000AF78607868FFF79A
:1016BC002DFF00BF0837BD4680BD80B586B000AF9A
:1016CC000346B9607A60FB7300237B61FFF742FF2E
:1016DC0078617A68B9687869FFF790FF024697F9E4
:1016EC000F3011461846FFF75FFF00BF1837BD4695
:1016FC0080BD80B582B000AF0346FB7197F907300F
:10170C001846FFF735FF00BF0837BD4680BD80B5D2
:10171C0082B000AF78607868FFF7A2FF03461846E6
:10172C000837BD4680BD000080B48BB000AF786038
:10173C00396000237B6200233B6248E101227B6A13
:10174C0002FA03F3FB613B681B68FA691340BB6147
:10175C00BA69FB699A4240F037813B685B68A34ADF
:10176C0093425ED0A14A934275D8A14A934258D075
:10177C009F4A93426FD89F4A934252D09D4A9342BC
:10178C0069D89D4A93424CD09B4A934263D89B4A5A
:10179C00934246D0994A93425DD8122B2AD8122BE9
:1017AC0059D801A252F823F02F1800080918000884
:1017BC001B1800085D18000863180008631800085F
:1017CC006318000863180008631800086318000801
:1017DC0063180008631800086318000863180008F1
:1017EC006318000863180008631800081118000833
:1017FC0025180008824A934213D02CE03B68DB6822
:10180C003B6229E03B68DB6804333B6224E03B68C5
:10181C00DB6808333B621FE03B68DB680C333B62E0
:10182C001AE03B689B68002B02D104233B6213E057
:10183C003B689B68012B05D108233B627B68FA69E6
:10184C001A6109E008233B627B68FA695A6103E07C
:10185C0000233B6200E000BFBB69FF2B01D87B6813
:10186C0001E07B6804337B61BB69FF2B02D87B6A88
:10187C009B0002E07B6A083B9B003B617B691A681A
:10188C000F213B6901FA03F3DB431A40396A3B69C8
:10189C0001FA03F31A437B691A603B685B6803F037
:1018AC008053002B00F09080564B9B69554A43F0B7
:1018BC0001039361534B9B6903F00103BB60BB684D
:1018CC00514A7B6A9B08023352F82330FB607B6AD7
:1018DC0003F003039B000F2202FA03F3DB43FA68C5
:1018EC001340FB607B68494A93420DD07B68484AA1
:1018FC00934207D07B68474A934201D1022304E00C
:10190C00032302E0012300E000237A6A02F00302C1
:10191C0092009340FA681343FB603B497B6A9B0837
:10192C000233FA6841F823203B685B6803F4803388
:10193C00002B06D0384B1A683749BB6913430B6030
:10194C0006E0354B1A68BB69DB43334913400B6027
:10195C003B685B6803F40033002B06D02E4B5A68AF
:10196C002D49BB6913434B6006E02B4B5A68BB698E
:10197C00DB43294913404B603B685B6803F48013DD
:10198C00002B06D0244B9A682349BB6913438B6008
:10199C0006E0214B9A68BB69DB431F4913408B60FF
:1019AC003B685B6803F40013002B06D01A4BDA6813
:1019BC001949BB691343CB6006E0174BDA68BB6966
:1019CC00DB4315491340CB607B6A01337B623B6878
:1019DC001A687B6A22FA03F3002B7FF4AFAE00BFC8
:1019EC0000BF2C37BD4680BC704700BF00003210D2
:1019FC000000311000002210000021100000121015
:101A0C0000001110001002400000014000080140CD
:101A1C00000C0140001001400004014080B485B06E
:101A2C0000AF78600B467B807B689A687B8813409C
:101A3C00002B02D00123FB7301E00023FB73FB7B23
:101A4C0018461437BD4680BC704780B483B000AFD5
:101A5C0078600B467B8013467B707B78002B03D021
:101A6C007A887B681A6103E07B881A047B681A61A8
:101A7C0000BF0C37BD4680BC704780B485B000AF4A
:101A8C0078600B467B807B68DB68FB607A88FB6840
:101A9C0013401A04FB68D9437B880B401A437B68BC
:101AAC001A6100BF1437BD4680BC704780B586B044
:101ABC0000AF78607B68002B01D101236CE27B685E
:101ACC001B6803F00103002B00F08780924B5B68CE
:101ADC0003F00C03042B0CD08F4B5B6803F00C034E
:101AEC00082B12D18C4B5B6803F48033B3F5803F29
:101AFC000BD1894B1B6803F40033002B6CD07B6833
:101B0C005B68002B68D1012346E27B685B68B3F508
:101B1C00803F06D1804B1B687F4A43F480331360AF
:101B2C002EE07B685B68002B0CD17B4B1B687A4AE0
:101B3C0023F480331360784B1B68774A23F480239B
:101B4C0013601DE07B685B68B3F5A02F0CD1724B62
:101B5C001B68714A43F4802313606F4B1B686E4AF9
:101B6C0043F4803313600BE06B4B1B686A4A23F41D
:101B7C0080331360684B1B68674A23F4802313601F
:101B8C007B685B68002B13D0FFF7B6FC386108E06C
:101B9C00FFF7B2FC02463B69D31A642B01D903232D
:101BAC00FAE15D4B1B6803F40033002BF0D014E01A
:101BBC00FFF7A2FC386108E0FFF79EFC02463B6988
:101BCC00D31A642B01D90323E6E1534B1B6803F4AE
:101BDC000033002BF0D100E000BF7B681B6803F0E2
:101BEC000203002B63D04C4B5B6803F00C03002BFF
:101BFC000BD0494B5B6803F00C03082B1CD1464BF4
:101C0C005B6803F48033002B16D1434B1B6803F045
:101C1C000203002B05D07B681B69012B01D001232B
:101C2C00BAE13D4B1B6823F0F8027B685B69DB0073
:101C3C00394913430B603AE07B681B69002B20D0B9
:101C4C00364B01221A60FFF757FC386108E0FFF7AA
:101C5C0053FC02463B69D31A022B01D903239BE1A7
:101C6C002D4B1B6803F00203002BF0D02A4B1B6892
:101C7C0023F0F8027B685B69DB00274913430B6098
:101C8C0015E0264B00221A60FFF736FC386108E09D
:101C9C00FFF732FC02463B69D31A022B01D903230E
:101CAC007AE11D4B1B6803F00203002BF0D17B681B
:101CBC001B6803F00803002B3AD07B689B69002B50
:101CCC0019D0174B01221A60FFF716FC386108E097
:101CDC00FFF712FC02463B69D31A022B01D90323EE
:101CEC005AE10D4B5B6A03F00203002BF0D001208C
:101CFC0000F0A6FA1CE00A4B00221A60FFF7FCFB6E
:101D0C0038610FE0FFF7F8FB02463B69D31A022B50
:101D1C0008D9032340E100BF0010024000004242FA
:101D2C00800442429E4B5B6A03F00203002BE9D114
:101D3C007B681B6803F00403002B00F0A6800023D3
:101D4C00FB75974BDB6903F08053002B0DD1944B43
:101D5C00DB69934A43F08053D361914BDB6903F009
:101D6C008053BB60BB680123FB758E4B1B6803F46F
:101D7C008073002B18D18B4B1B688A4A43F48073F9
:101D8C001360FFF7B9FB386108E0FFF7B5FB0246BB
:101D9C003B69D31A642B01D90323FDE0814B1B68EB
:101DAC0003F48073002BF0D07B68DB68012B06D129
:101DBC007B4B1B6A7A4A43F0010313622DE07B686C
:101DCC00DB68002B0CD1764B1B6A754A23F00103A0
:101DDC001362734B1B6A724A23F0040313621CE0F8
:101DEC007B68DB68052B0CD16D4B1B6A6C4A43F08E
:101DFC00040313626A4B1B6A694A43F001031362C2
:101E0C000BE0674B1B6A664A23F001031362644BB9
:101E1C001B6A634A23F0040313627B68DB68002BA4
:101E2C0015D0FFF769FB38610AE0FFF765FB024646
:101E3C003B69D31A41F28832934201D90323ABE0B8
:101E4C00574B1B6A03F00203002BEED014E0FFF794
:101E5C0053FB38610AE0FFF74FFB02463B69D31A8C
:101E6C0041F28832934201D9032395E04C4B1B6A13
:101E7C0003F00203002BEED1FB7D012B05D1484B67
:101E8C00DB69474A23F08053D3617B68DB69002B05
:101E9C0000F08180424B5B6803F00C03082B61D08F
:101EAC007B68DB69022B46D13F4B00221A60FFF79F
:101EBC0023FB386108E0FFF71FFB02463B69D31A8E
:101ECC00022B01D9032367E0354B1B6803F0007329
:101EDC00002BF0D17B681B6AB3F5803F08D1304BE7
:101EEC005B6823F400327B689B682D4913434B607D
:101EFC002B4B5B6823F474127B68196A7B685B6AF2
:101F0C000B43274913434B60274B01221A60FFF701
:101F1C00F3FA386108E0FFF7EFFA02463B69D31A8F
:101F2C00022B01D9032337E01D4B1B6803F0007310
:101F3C00002BF0D02FE01C4B00221A60FFF7DCFACC
:101F4C00386108E0FFF7D8FA02463B69D31A022B36
:101F5C0001D9032320E0124B1B6803F00073002B04
:101F6C00F0D118E07B68DB69012B01D1012313E070
:101F7C000B4B5B68FB60FB6803F480327B681B6A6D
:101F8C009A4206D1FB6803F470127B685B6A9A4232
:101F9C0001D0012300E0002318461837BD4680BD50
:101FAC0000100240007000406000424280B584B0D6
:101FBC0000AF786039607B68002B01D10123D0E041
:101FCC006A4B1B6803F007033A689A4210D9674BB7
:101FDC001B6823F0070265493B6813430B60634B96
:101FEC001B6803F007033A689A4201D00123B8E05A
:101FFC007B681B6803F00203002B20D07B681B68F6
:10200C0003F00403002B05D0594B5B68584A43F48A
:10201C00E06353607B681B6803F00803002B05D05A
:10202C00534B5B68524A43F460535360504B5B68AC
:10203C0023F0F0027B689B684D4913434B607B682F
:10204C001B6803F00103002B40D07B685B68012BFD
:10205C0007D1474B1B6803F40033002B15D1012328
:10206C007FE07B685B68022B07D1414B1B6803F058
:10207C000073002B09D1012373E03D4B1B6803F067
:10208C000203002B01D101236BE0394B5B6823F079
:10209C0003027B685B68364913434B60FFF72CFAED
:1020AC00F8600AE0FFF728FA0246FB68D31A41F2FF
:1020BC008832934201D9032353E02D4B5B6803F024
:1020CC000C027B685B689B009A42EBD1274B1B6828
:1020DC0003F007033A689A4210D2244B1B6823F092
:1020EC00070222493B6813430B60204B1B6803F02B
:1020FC0007033A689A4201D0012332E07B681B68DF
:10210C0003F00403002B08D0194B5B6823F4E06246
:10211C007B68DB68164913434B607B681B6803F0D4
:10212C000803002B09D0124B5B6823F460527B68C8
:10213C001B69DB000E4913434B6000F021F802468B
:10214C000B4B5B681B0903F00F030A49CB5C22FAAB
:10215C0003F3094A1360094B1B681846FFF78AF909
:10216C00002318461037BD4680BD00BF002002403A
:10217C0000100240D02A00086400002068000020F3
:10218C0090B48AB000AF2A4B3C1D0FCB84E80F00F3
:10219C0040F201233B800023FB610023BB61002341
:1021AC007B6200237B6100233B62224B5B68FB61FB
:1021BC00FB6903F00C03042B02D0082B03D02DE099
:1021CC001D4B3B622DE0FB699B0C03F00F0307F1E9
:1021DC002802134413F8243C7B61FB6903F480331D
:1021EC00002B13D0134B5B685B0C03F0010307F15E
:1021FC002802134413F8283CBB617B690E4A02FB8E
:10220C0003F2BB69B2FBF3F37B6204E07B690B4A1C
:10221C0002FB03F37B627B6A3B6202E0064B3B6290
:10222C0000BF3B6A18462837BD4690BC704700BFBC
:10223C00C02A00080010024000127A0000093D007C
:10224C0080B485B000AF78600A4B1B680A4AA2FBC9
:10225C0003235B0A7A6802FB03F3FB6000BFFB6895
:10226C005A1EFA60002BF9D100BF00BF1437BD46CF
:10227C0080BC704764000020D34D621080B582B0E2
:10228C0000AF78607B68002B01D1012341E07B68B3
:10229C0093F83D30DBB2002B06D17B68002283F82B
:1022AC003C207868FEF706FF7B68022283F83D200D
:1022BC007B681A687B6804331946104600F06AFA8A
:1022CC007B68012283F846207B68012283F83E203C
:1022DC007B68012283F83F207B68012283F8402031
:1022EC007B68012283F841207B68012283F842201D
:1022FC007B68012283F843207B68012283F8442009
:10230C007B68012283F845207B68012283F83D20FD
:10231C00002318460837BD4680BD000080B485B048
:10232C0000AF78607B6893F83D30DBB2012B01D0B5
:10233C00012335E07B68022283F83D207B681B6813
:10234C00DA687B681B6842F00102DA607B681B6804
:10235C00164A934209D07B681B68B3F1804F04D0B6
:10236C007B681B68124A934211D17B681B689B687F
:10237C0003F00703FB60FB68062B10D07B681B681F
:10238C001A687B681B6842F001021A6007E07B68E0
:10239C001B681A687B681B6842F001021A600023F4
:1023AC0018461437BD4680BC704700BF002C014056
:1023BC000004004080B582B000AF78607B681B6879
:1023CC001B6903F00203022B22D17B681B68DB68BC
:1023DC0003F00203022B1BD17B681B686FF0020217
:1023EC001A617B6801221A777B681B689B6903F072
:1023FC000303002B03D0786800F0B1F905E078688E
:10240C0000F0A4F9786800F0B3F97B6800221A7721
:10241C007B681B681B6903F00403042B22D17B68C7
:10242C001B68DB6803F00403042B1BD17B681B685F
:10243C006FF004021A617B6802221A777B681B68B2
:10244C009B6903F44073002B03D0786800F087F984
:10245C0005E0786800F07AF9786800F089F97B6813
:10246C0000221A777B681B681B6903F00803082B92
:10247C0022D17B681B68DB6803F00803082B1BD197
:10248C007B681B686FF008021A617B6804221A775C
:10249C007B681B68DB6903F00303002B03D07868AF
:1024AC0000F05DF905E0786800F050F9786800F00C
:1024BC005FF97B6800221A777B681B681B6903F045
:1024CC001003102B22D17B681B68DB6803F0100310
:1024DC00102B1BD17B681B686FF010021A617B6894
:1024EC0008221A777B681B68DB6903F44073002BA6
:1024FC0003D0786800F033F905E0786800F026F92D
:10250C00786800F035F97B6800221A777B681B68C5
:10251C001B6903F00103012B0ED17B681B68DB6880
:10252C0003F00103012B07D17B681B686FF00102DC
:10253C001A617868FEF7EEF97B681B681B6903F07B
:10254C008003802B0ED17B681B68DB6803F0800353
:10255C00802B07D17B681B686FF080021A6178684A
:10256C0000F067FA7B681B681B6903F04003402B83
:10257C000ED17B681B68DB6803F04003402B07D14E
:10258C007B681B686FF040021A61786800F0F9F8FC
:10259C007B681B681B6903F02003202B0ED17B6822
:1025AC001B68DB6803F02003202B07D17B681B68BA
:1025BC006FF020021A61786800F032FA00BF083719
:1025CC00BD4680BD80B584B000AF786039607B6853
:1025DC0093F83C30012B01D10223B3E07B6801223C
:1025EC0083F83C207B68022283F83D207B681B68C3
:1025FC009B68FB60FB6823F07703FB60FB6823F4AC
:10260C007F43FB607B681B68FA689A603B681B68B9
:10261C00B3F5005F3ED0B3F5005F00F28780B3F5F1
:10262C00805F00F08580B3F5805F7FD8702B1AD067
:10263C00702B7BD8602B50D0602B77D8502B3CD094
:10264C00502B73D8402B58D0402B6FD8302B64D0E4
:10265C00302B6BD8202B60D0202B67D8002B5CD074
:10266C00102B5AD062E07B6818683B6899683B680D
:10267C005A683B68DB6800F05CF97B681B689B68F8
:10268C00FB60FB6843F07703FB607B681B68FA68B0
:10269C009A604EE07B6818683B6899683B685A689A
:1026AC003B68DB6800F045F97B681B689A687B68BF
:1026BC001B6842F480429A603BE07B6818683B6878
:1026CC0059683B68DB681A4600F0BCF87B681B68ED
:1026DC005021184600F013F92BE07B6818683B6812
:1026EC0059683B68DB681A4600F0DAF87B681B68AF
:1026FC006021184600F003F91BE07B6818683B6802
:10270C0059683B68DB681A4600F09CF87B681B68CC
:10271C004021184600F0F3F80BE07B681A683B6820
:10272C001B681946104600F0EAF802E000BF00E012
:10273C0000BF7B68012283F83D207B68002283F870
:10274C003C20002318461037BD4680BD80B483B0B2
:10275C0000AF786000BF0C37BD4680BC704780B4BA
:10276C0083B000AF786000BF0C37BD4680BC7047AB
:10277C0080B483B000AF786000BF0C37BD4680BC1E
:10278C00704780B483B000AF786000BF0C37BD4693
:10279C0080BC704780B485B000AF786039607B68CE
:1027AC001B68FB607B68254A934207D07B68B3F1BA
:1027BC00804F03D07B68224A934208D1FB6823F0F8
:1027CC007003FB603B685B68FA681343FB607B68D3
:1027DC001A4A934207D07B68B3F1804F03D07B68D1
:1027EC00174A934208D1FB6823F44073FB603B68A3
:1027FC00DB68FA681343FB60FB6823F080023B68DC
:10280C005B691343FB607B68FA681A603B689A68E3
:10281C007B68DA623B681A687B689A627B68074A55
:10282C00934203D13B681A697B681A637B68012267
:10283C005A6100BF1437BD4680BC7047002C014064
:10284C000004004080B487B000AFF860B9607A60D3
:10285C00FB681B6A7B61FB681B6A23F00102FB6847
:10286C001A62FB689B693B613B6923F0F0033B6197
:10287C007B681B013A6913433B617B6923F00A03B4
:10288C007B617A69BB6813437B61FB683A699A6127
:10289C00FB687A691A6200BF1C37BD4680BC704762
:1028AC0080B487B000AFF860B9607A60FB681B6ACF
:1028BC0023F01002FB681A62FB689B697B61FB6862
:1028CC001B6A3B617B6923F470437B617B681B0350
:1028DC007A6913437B613B6923F0A0033B61BB68BE
:1028EC001B013A6913433B61FB687A699A61FB6887
:1028FC003A691A6200BF1C37BD4680BC704780B471
:10290C0085B000AF786039607B689B68FB60FB68C2
:10291C0023F07003FB603A68FB68134343F0070332
:10292C00FB607B68FA689A6000BF1437BD4680BCB8
:10293C00704780B487B000AFF860B9607A603B60D4
:10294C00FB689B687B617B6923F47F437B613B68FD
:10295C001A027B681A43BB6813437A6913437B6181
:10296C00FB687A699A6000BF1C37BD4680BC704713
:10297C0080B485B000AF786039607B6893F83C30E8
:10298C00012B01D1022341E07B68012283F83C201A
:10299C007B68022283F83D207B681B685B68FB60C8
:1029AC007B681B689B68BB60FB6823F07003FB6053
:1029BC003B681B68FA681343FB607B681B68FA680A
:1029CC005A607B681B68144A934209D07B681B6869
:1029DC00B3F1804F04D07B681B68104A93420CD132
:1029EC00BB6823F08003BB603B685B68BA68134329
:1029FC00BB607B681B68BA689A607B68012283F8AD
:102A0C003D207B68002283F83C20002318461437B5
:102A1C00BD4680BC704700BF002C01400004004044
:102A2C0080B483B000AF786000BF0C37BD4680BC6B
:102A3C00704780B483B000AF786000BF0C37BD46E0
:102A4C0080BC704770B500260C4D0D4C641BA41057
:102A5C00A64209D100F022F800260A4D0A4C641B4C
:102A6C00A410A64205D170BD55F8043B9847013619
:102A7C00EEE755F8043B98470136F2E7E02A0008E8
:102A8C00E02A0008E02A0008E42A00080346024471
:102A9C00934200D1704703F8011BF9E7F8B500BF6A
:102AAC00F8BC08BC9E467047F8B500BFF8BC08BC23
:042ABC009E4670477B
:102AC00002030405060708090A0B0C0D0E0F10106F
:102AD00000000000000000000102030406070809CE
:042AE00031010008B8
:042AE4000D010008D8
:102AE800010101000101010001010100000C014088
:102AF800000C0140000C01400004001000400000E0
:102B080005000000030000000200000040792430A6
:102B18001912027800100000000C0140000C01405E
:102B2800000C0140000C0140000C0140000C014069
:102B3800000C014001000200040008001000200001
:102B4800400000000024F400100000000100000014
:0400000508001409D2
:00000001FF
